{
  "contractName": "Counter",
  "abi": [
    {
      "inputs": [],
      "name": "counter",
      "outputs": [
        {
          "internalType": "uint256",
          "name": "",
          "type": "uint256"
        }
      ],
      "stateMutability": "view",
      "type": "function",
      "constant": true
    },
    {
      "inputs": [],
      "name": "increment",
      "outputs": [
        {
          "internalType": "uint256",
          "name": "",
          "type": "uint256"
        }
      ],
      "stateMutability": "nonpayable",
      "type": "function"
    },
    {
      "inputs": [],
      "name": "decrement",
      "outputs": [
        {
          "internalType": "uint256",
          "name": "",
          "type": "uint256"
        }
      ],
      "stateMutability": "nonpayable",
      "type": "function"
    }
  ],
  "bytecode": "0x60806040526000805534801561001457600080fd5b5060fd806100236000396000f3fe6080604052348015600f57600080fd5b5060043610603c5760003560e01c80632baeceb714604157806361bc221a14605d578063d09de08a146079575b600080fd5b60476095565b6040518082815260200191505060405180910390f35b606360ab565b6040518082815260200191505060405180910390f35b607f60b1565b6040518082815260200191505060405180910390f35b6000600160005403600081905550600054905090565b60005481565b600060016000540160008190555060005490509056fea2646970667358221220737bdbcfb0984811fb018879e3ca61d9fffd2e17b61890287c73fb7aa2c459c464736f6c63430007000033",
  "immutableReferences": {},
  "source": "pragma solidity ^0.7.0;\r\n\r\ncontract Counter {\r\n    uint256 public counter = 0;\r\n\r\n    function increment() public returns (uint256) {\r\n        counter = counter + 1;\r\n        return counter;\r\n    }\r\n\r\n    function decrement() public returns (uint256) {\r\n        counter = counter - 1;\r\n        return counter;\r\n    }\r\n}",
  "sourcePath": "C:\\Users\\Casa\\Desktop\\Alex\\Counter\\counter-sc\\contracts\\Counter.sol",
  "compiler": {
    "name": "solc",
    "version": "0.7.0+commit.9e61f92b.Emscripten.clang"
  },
  "schemaVersion": "3.4.3",
  "updatedAt": "2021-11-26T15:51:18.698Z",
  "networkType": "ethereum",
  "devdoc": {
    "kind": "dev",
    "methods": {},
    "version": 1
  },
  "userdoc": {
    "kind": "user",
    "methods": {},
    "version": 1
  }
}